{
  "contractName": "Lottery",
  "abi": [
    {
      "inputs": [],
      "stateMutability": "nonpayable",
      "type": "constructor"
    },
    {
      "inputs": [],
      "name": "manager",
      "outputs": [
        {
          "internalType": "address",
          "name": "",
          "type": "address"
        }
      ],
      "stateMutability": "view",
      "type": "function",
      "constant": true
    },
    {
      "inputs": [
        {
          "internalType": "uint256",
          "name": "",
          "type": "uint256"
        }
      ],
      "name": "players",
      "outputs": [
        {
          "internalType": "address",
          "name": "",
          "type": "address"
        }
      ],
      "stateMutability": "view",
      "type": "function",
      "constant": true
    },
    {
      "inputs": [
        {
          "internalType": "uint256",
          "name": "",
          "type": "uint256"
        }
      ],
      "name": "winners",
      "outputs": [
        {
          "internalType": "address",
          "name": "",
          "type": "address"
        }
      ],
      "stateMutability": "view",
      "type": "function",
      "constant": true
    },
    {
      "inputs": [],
      "name": "enter",
      "outputs": [],
      "stateMutability": "payable",
      "type": "function",
      "payable": true
    },
    {
      "inputs": [],
      "name": "pickWinner",
      "outputs": [],
      "stateMutability": "payable",
      "type": "function",
      "payable": true
    },
    {
      "inputs": [],
      "name": "getPlayers",
      "outputs": [
        {
          "internalType": "address[]",
          "name": "",
          "type": "address[]"
        }
      ],
      "stateMutability": "view",
      "type": "function",
      "constant": true
    },
    {
      "inputs": [],
      "name": "getWinners",
      "outputs": [
        {
          "internalType": "address[]",
          "name": "",
          "type": "address[]"
        }
      ],
      "stateMutability": "view",
      "type": "function",
      "constant": true
    }
  ],
  "bytecode": "0x608060405234801561001057600080fd5b50336000806101000a81548173ffffffffffffffffffffffffffffffffffffffff021916908373ffffffffffffffffffffffffffffffffffffffff160217905550610d5e806100606000396000f3fe6080604052600436106100705760003560e01c8063a2fb11751161004e578063a2fb1175146100d5578063df15c37e14610112578063e97dcb621461013d578063f71d96cb1461014757610070565b8063481c6a75146100755780635d495aea146100a05780638b5b9ccc146100aa575b600080fd5b34801561008157600080fd5b5061008a610184565b60405161009791906107a0565b60405180910390f35b6100a86101a8565b005b3480156100b657600080fd5b506100bf61043a565b6040516100cc9190610879565b60405180910390f35b3480156100e157600080fd5b506100fc60048036038101906100f791906108d6565b6104c8565b60405161010991906107a0565b60405180910390f35b34801561011e57600080fd5b50610127610507565b6040516101349190610879565b60405180910390f35b610145610595565b005b34801561015357600080fd5b5061016e600480360381019061016991906108d6565b610643565b60405161017b91906107a0565b60405180910390f35b60008054906101000a900473ffffffffffffffffffffffffffffffffffffffff1681565b60008054906101000a900473ffffffffffffffffffffffffffffffffffffffff1673ffffffffffffffffffffffffffffffffffffffff163373ffffffffffffffffffffffffffffffffffffffff1614610236576040517f08c379a000000000000000000000000000000000000000000000000000000000815260040161022d90610986565b60405180910390fd5b6000600180549050610246610682565b61025091906109d5565b905060006001828154811061026857610267610a06565b5b9060005260206000200160009054906101000a900473ffffffffffffffffffffffffffffffffffffffff1690508073ffffffffffffffffffffffffffffffffffffffff166108fc6064603c476102be9190610a64565b6102c89190610abe565b9081150290604051600060405180830381858888f193505050501580156102f3573d6000803e3d6000fd5b5060008054906101000a900473ffffffffffffffffffffffffffffffffffffffff1673ffffffffffffffffffffffffffffffffffffffff166108fc606460284761033d9190610a64565b6103479190610abe565b9081150290604051600060405180830381858888f19350505050158015610372573d6000803e3d6000fd5b506002819080600181540180825580915050600190039060005260206000200160009091909190916101000a81548173ffffffffffffffffffffffffffffffffffffffff021916908373ffffffffffffffffffffffffffffffffffffffff160217905550600067ffffffffffffffff8111156103f1576103f0610aef565b5b60405190808252806020026020018201604052801561041f5781602001602082028036833780820191505090505b50600190805190602001906104359291906106b8565b505050565b606060018054806020026020016040519081016040528092919081815260200182805480156104be57602002820191906000526020600020905b8160009054906101000a900473ffffffffffffffffffffffffffffffffffffffff1673ffffffffffffffffffffffffffffffffffffffff1681526020019060010190808311610474575b5050505050905090565b600281815481106104d857600080fd5b906000526020600020016000915054906101000a900473ffffffffffffffffffffffffffffffffffffffff1681565b6060600280548060200260200160405190810160405280929190818152602001828054801561058b57602002820191906000526020600020905b8160009054906101000a900473ffffffffffffffffffffffffffffffffffffffff1673ffffffffffffffffffffffffffffffffffffffff1681526020019060010190808311610541575b5050505050905090565b662386f26fc1000034116105de576040517f08c379a00000000000000000000000000000000000000000000000000000000081526004016105d590610b90565b60405180910390fd5b6001339080600181540180825580915050600190039060005260206000200160009091909190916101000a81548173ffffffffffffffffffffffffffffffffffffffff021916908373ffffffffffffffffffffffffffffffffffffffff160217905550565b6001818154811061065357600080fd5b906000526020600020016000915054906101000a900473ffffffffffffffffffffffffffffffffffffffff1681565b60004442600160405160200161069a93929190610cef565b6040516020818303038152906040528051906020012060001c905090565b828054828255906000526020600020908101928215610731579160200282015b828111156107305782518260006101000a81548173ffffffffffffffffffffffffffffffffffffffff021916908373ffffffffffffffffffffffffffffffffffffffff160217905550916020019190600101906106d8565b5b50905061073e9190610742565b5090565b5b8082111561075b576000816000905550600101610743565b5090565b600073ffffffffffffffffffffffffffffffffffffffff82169050919050565b600061078a8261075f565b9050919050565b61079a8161077f565b82525050565b60006020820190506107b56000830184610791565b92915050565b600081519050919050565b600082825260208201905092915050565b6000819050602082019050919050565b6107f08161077f565b82525050565b600061080283836107e7565b60208301905092915050565b6000602082019050919050565b6000610826826107bb565b61083081856107c6565b935061083b836107d7565b8060005b8381101561086c57815161085388826107f6565b975061085e8361080e565b92505060018101905061083f565b5085935050505092915050565b60006020820190508181036000830152610893818461081b565b905092915050565b600080fd5b6000819050919050565b6108b3816108a0565b81146108be57600080fd5b50565b6000813590506108d0816108aa565b92915050565b6000602082840312156108ec576108eb61089b565b5b60006108fa848285016108c1565b91505092915050565b600082825260208201905092915050565b7f4f6e6c7920746865206d616e616765722063616e207069636b20612077696e6e60008201527f6572000000000000000000000000000000000000000000000000000000000000602082015250565b6000610970602283610903565b915061097b82610914565b604082019050919050565b6000602082019050818103600083015261099f81610963565b9050919050565b7f4e487b7100000000000000000000000000000000000000000000000000000000600052601260045260246000fd5b60006109e0826108a0565b91506109eb836108a0565b9250826109fb576109fa6109a6565b5b828206905092915050565b7f4e487b7100000000000000000000000000000000000000000000000000000000600052603260045260246000fd5b7f4e487b7100000000000000000000000000000000000000000000000000000000600052601160045260246000fd5b6000610a6f826108a0565b9150610a7a836108a0565b9250817fffffffffffffffffffffffffffffffffffffffffffffffffffffffffffffffff0483118215151615610ab357610ab2610a35565b5b828202905092915050565b6000610ac9826108a0565b9150610ad4836108a0565b925082610ae457610ae36109a6565b5b828204905092915050565b7f4e487b7100000000000000000000000000000000000000000000000000000000600052604160045260246000fd5b7f596f75206d757374206465706f736974206174206c6561737420302e3031657460008201527f6820657468657200000000000000000000000000000000000000000000000000602082015250565b6000610b7a602783610903565b9150610b8582610b1e565b604082019050919050565b60006020820190508181036000830152610ba981610b6d565b9050919050565b6000819050919050565b610bcb610bc6826108a0565b610bb0565b82525050565b600081549050919050565b600081905092915050565b60008190508160005260206000209050919050565b610c058161077f565b82525050565b6000610c178383610bfc565b60208301905092915050565b60008160001c9050919050565b600073ffffffffffffffffffffffffffffffffffffffff82169050919050565b6000610c63610c5e83610c23565b610c30565b9050919050565b6000610c768254610c50565b9050919050565b6000600182019050919050565b6000610c9582610bd1565b610c9f8185610bdc565b9350610caa83610be7565b8060005b83811015610ce257610cbf82610c6a565b610cc98882610c0b565b9750610cd483610c7d565b925050600181019050610cae565b5085935050505092915050565b6000610cfb8286610bba565b602082019150610d0b8285610bba565b602082019150610d1b8284610c8a565b915081905094935050505056fea26469706673582212205f06e0e61ecd8adb0106a49d344483d995bba80c6a9379b133fb982f1d9ef2e264736f6c634300080b0033",
  "immutableReferences": {},
  "source": "// SPDX-License-Identifier: GPL-3.0\n\npragma solidity >=0.7.0 <0.9.0;\n\ncontract Lottery {\n    constructor() {\n        manager = msg.sender;\n    }\n\n    address public manager;\n\n    address[] public players;\n\n    address[] public winners;\n\n    function enter() public payable {\n        require(\n            msg.value > .01 ether,\n            \"You must deposit at least 0.01eth ether\"\n        );\n        players.push(msg.sender);\n    }\n\n    function random() private view returns (uint256) {\n        return\n            uint256(\n                keccak256(\n                    abi.encodePacked(block.difficulty, block.timestamp, players)\n                )\n            );\n    }\n\n    function pickWinner() public payable managerOnly {\n        uint256 winner = random() % players.length;\n        address winnerAddress = players[winner];\n        payable(winnerAddress).transfer((address(this).balance * 60) / 100);\n        payable(manager).transfer((address(this).balance * 40) / 100);\n        winners.push(winnerAddress);\n        players = new address[](0);\n    }\n\n    function getPlayers() public view returns (address[] memory) {\n        return players;\n    }\n\n    function getWinners() public view returns (address[] memory) {\n        return winners;\n    }\n\n    modifier managerOnly() {\n        require(msg.sender == manager, \"Only the manager can pick a winner\");\n        _;\n    }\n}\n",
  "sourcePath": "/Users/charlesarchibong/Documents/dev.nosync/BlockchainProjects/Contracts/lottery_contract/contracts/Lottery.sol",
  "compiler": {
    "name": "solc",
    "version": "0.8.11+commit.d7f03943.Emscripten.clang"
  },
  "schemaVersion": "3.4.4",
  "updatedAt": "2022-01-23T04:02:47.614Z",
  "networkType": "ethereum",
  "devdoc": {
    "kind": "dev",
    "methods": {},
    "version": 1
  },
  "userdoc": {
    "kind": "user",
    "methods": {},
    "version": 1
  }
}